{
  "_format": "hh-sol-artifact-1",
  "contractName": "DubID",
  "sourceName": "contracts/Domains.sol",
  "abi": [
    {
      "inputs": [
        {
          "internalType": "string",
          "name": "_tld",
          "type": "string"
        }
      ],
      "stateMutability": "payable",
      "type": "constructor"
    },
    {
      "inputs": [],
      "name": "AlreadyRegistered",
      "type": "error"
    },
    {
      "inputs": [
        {
          "internalType": "string",
          "name": "name",
          "type": "string"
        }
      ],
      "name": "InvalidName",
      "type": "error"
    },
    {
      "inputs": [],
      "name": "Unauthorized",
      "type": "error"
    },
    {
      "anonymous": false,
      "inputs": [
        {
          "indexed": true,
          "internalType": "address",
          "name": "owner",
          "type": "address"
        },
        {
          "indexed": true,
          "internalType": "address",
          "name": "approved",
          "type": "address"
        },
        {
          "indexed": true,
          "internalType": "uint256",
          "name": "tokenId",
          "type": "uint256"
        }
      ],
      "name": "Approval",
      "type": "event"
    },
    {
      "anonymous": false,
      "inputs": [
        {
          "indexed": true,
          "internalType": "address",
          "name": "owner",
          "type": "address"
        },
        {
          "indexed": true,
          "internalType": "address",
          "name": "operator",
          "type": "address"
        },
        {
          "indexed": false,
          "internalType": "bool",
          "name": "approved",
          "type": "bool"
        }
      ],
      "name": "ApprovalForAll",
      "type": "event"
    },
    {
      "anonymous": false,
      "inputs": [
        {
          "indexed": true,
          "internalType": "address",
          "name": "from",
          "type": "address"
        },
        {
          "indexed": true,
          "internalType": "address",
          "name": "to",
          "type": "address"
        },
        {
          "indexed": true,
          "internalType": "uint256",
          "name": "tokenId",
          "type": "uint256"
        }
      ],
      "name": "Transfer",
      "type": "event"
    },
    {
      "inputs": [
        {
          "internalType": "string",
          "name": "",
          "type": "string"
        }
      ],
      "name": "TxId",
      "outputs": [
        {
          "internalType": "bytes32",
          "name": "",
          "type": "bytes32"
        }
      ],
      "stateMutability": "view",
      "type": "function"
    },
    {
      "inputs": [
        {
          "internalType": "address",
          "name": "to",
          "type": "address"
        },
        {
          "internalType": "uint256",
          "name": "tokenId",
          "type": "uint256"
        }
      ],
      "name": "approve",
      "outputs": [],
      "stateMutability": "nonpayable",
      "type": "function"
    },
    {
      "inputs": [
        {
          "internalType": "address",
          "name": "owner",
          "type": "address"
        }
      ],
      "name": "balanceOf",
      "outputs": [
        {
          "internalType": "uint256",
          "name": "",
          "type": "uint256"
        }
      ],
      "stateMutability": "view",
      "type": "function"
    },
    {
      "inputs": [
        {
          "internalType": "string",
          "name": "",
          "type": "string"
        }
      ],
      "name": "domains",
      "outputs": [
        {
          "internalType": "address",
          "name": "",
          "type": "address"
        }
      ],
      "stateMutability": "view",
      "type": "function"
    },
    {
      "inputs": [
        {
          "internalType": "string",
          "name": "name",
          "type": "string"
        }
      ],
      "name": "getAddress",
      "outputs": [
        {
          "internalType": "address",
          "name": "",
          "type": "address"
        }
      ],
      "stateMutability": "view",
      "type": "function"
    },
    {
      "inputs": [],
      "name": "getAllNames",
      "outputs": [
        {
          "internalType": "string[]",
          "name": "",
          "type": "string[]"
        }
      ],
      "stateMutability": "view",
      "type": "function"
    },
    {
      "inputs": [
        {
          "internalType": "uint256",
          "name": "tokenId",
          "type": "uint256"
        }
      ],
      "name": "getApproved",
      "outputs": [
        {
          "internalType": "address",
          "name": "",
          "type": "address"
        }
      ],
      "stateMutability": "view",
      "type": "function"
    },
    {
      "inputs": [
        {
          "internalType": "string",
          "name": "name",
          "type": "string"
        }
      ],
      "name": "getRecord",
      "outputs": [
        {
          "internalType": "bytes32",
          "name": "",
          "type": "bytes32"
        }
      ],
      "stateMutability": "view",
      "type": "function"
    },
    {
      "inputs": [
        {
          "internalType": "address",
          "name": "owner",
          "type": "address"
        },
        {
          "internalType": "address",
          "name": "operator",
          "type": "address"
        }
      ],
      "name": "isApprovedForAll",
      "outputs": [
        {
          "internalType": "bool",
          "name": "",
          "type": "bool"
        }
      ],
      "stateMutability": "view",
      "type": "function"
    },
    {
      "inputs": [],
      "name": "isOwner",
      "outputs": [
        {
          "internalType": "bool",
          "name": "",
          "type": "bool"
        }
      ],
      "stateMutability": "view",
      "type": "function"
    },
    {
      "inputs": [],
      "name": "name",
      "outputs": [
        {
          "internalType": "string",
          "name": "",
          "type": "string"
        }
      ],
      "stateMutability": "view",
      "type": "function"
    },
    {
      "inputs": [
        {
          "internalType": "uint256",
          "name": "",
          "type": "uint256"
        }
      ],
      "name": "names",
      "outputs": [
        {
          "internalType": "string",
          "name": "",
          "type": "string"
        }
      ],
      "stateMutability": "view",
      "type": "function"
    },
    {
      "inputs": [],
      "name": "owner",
      "outputs": [
        {
          "internalType": "address payable",
          "name": "",
          "type": "address"
        }
      ],
      "stateMutability": "view",
      "type": "function"
    },
    {
      "inputs": [
        {
          "internalType": "uint256",
          "name": "tokenId",
          "type": "uint256"
        }
      ],
      "name": "ownerOf",
      "outputs": [
        {
          "internalType": "address",
          "name": "",
          "type": "address"
        }
      ],
      "stateMutability": "view",
      "type": "function"
    },
    {
      "inputs": [
        {
          "internalType": "string",
          "name": "name",
          "type": "string"
        }
      ],
      "name": "price",
      "outputs": [
        {
          "internalType": "uint256",
          "name": "",
          "type": "uint256"
        }
      ],
      "stateMutability": "pure",
      "type": "function"
    },
    {
      "inputs": [
        {
          "internalType": "string",
          "name": "name",
          "type": "string"
        }
      ],
      "name": "register",
      "outputs": [],
      "stateMutability": "payable",
      "type": "function"
    },
    {
      "inputs": [
        {
          "internalType": "address",
          "name": "from",
          "type": "address"
        },
        {
          "internalType": "address",
          "name": "to",
          "type": "address"
        },
        {
          "internalType": "uint256",
          "name": "tokenId",
          "type": "uint256"
        }
      ],
      "name": "safeTransferFrom",
      "outputs": [],
      "stateMutability": "nonpayable",
      "type": "function"
    },
    {
      "inputs": [
        {
          "internalType": "address",
          "name": "from",
          "type": "address"
        },
        {
          "internalType": "address",
          "name": "to",
          "type": "address"
        },
        {
          "internalType": "uint256",
          "name": "tokenId",
          "type": "uint256"
        },
        {
          "internalType": "bytes",
          "name": "_data",
          "type": "bytes"
        }
      ],
      "name": "safeTransferFrom",
      "outputs": [],
      "stateMutability": "nonpayable",
      "type": "function"
    },
    {
      "inputs": [
        {
          "internalType": "address",
          "name": "operator",
          "type": "address"
        },
        {
          "internalType": "bool",
          "name": "approved",
          "type": "bool"
        }
      ],
      "name": "setApprovalForAll",
      "outputs": [],
      "stateMutability": "nonpayable",
      "type": "function"
    },
    {
      "inputs": [
        {
          "internalType": "string",
          "name": "name",
          "type": "string"
        }
      ],
      "name": "setRecord",
      "outputs": [],
      "stateMutability": "nonpayable",
      "type": "function"
    },
    {
      "inputs": [
        {
          "internalType": "bytes4",
          "name": "interfaceId",
          "type": "bytes4"
        }
      ],
      "name": "supportsInterface",
      "outputs": [
        {
          "internalType": "bool",
          "name": "",
          "type": "bool"
        }
      ],
      "stateMutability": "view",
      "type": "function"
    },
    {
      "inputs": [],
      "name": "symbol",
      "outputs": [
        {
          "internalType": "string",
          "name": "",
          "type": "string"
        }
      ],
      "stateMutability": "view",
      "type": "function"
    },
    {
      "inputs": [],
      "name": "tld",
      "outputs": [
        {
          "internalType": "string",
          "name": "",
          "type": "string"
        }
      ],
      "stateMutability": "view",
      "type": "function"
    },
    {
      "inputs": [
        {
          "internalType": "uint256",
          "name": "tokenId",
          "type": "uint256"
        }
      ],
      "name": "tokenURI",
      "outputs": [
        {
          "internalType": "string",
          "name": "",
          "type": "string"
        }
      ],
      "stateMutability": "view",
      "type": "function"
    },
    {
      "inputs": [
        {
          "internalType": "address",
          "name": "from",
          "type": "address"
        },
        {
          "internalType": "address",
          "name": "to",
          "type": "address"
        },
        {
          "internalType": "uint256",
          "name": "tokenId",
          "type": "uint256"
        }
      ],
      "name": "transferFrom",
      "outputs": [],
      "stateMutability": "nonpayable",
      "type": "function"
    },
    {
      "inputs": [
        {
          "internalType": "string",
          "name": "name",
          "type": "string"
        }
      ],
      "name": "valid",
      "outputs": [
        {
          "internalType": "bool",
          "name": "",
          "type": "bool"
        }
      ],
      "stateMutability": "pure",
      "type": "function"
    },
    {
      "inputs": [],
      "name": "withdraw",
      "outputs": [],
      "stateMutability": "nonpayable",
      "type": "function"
    }
  ],
  "bytecode": "0x6080604052604051806108a0016040528061086b81526020016200576461086b9139600a908051906020019062000038929190620002c8565b506040518060400160405280600d81526020017f3c2f746578743e3c2f7376673e00000000000000000000000000000000000000815250600b908051906020019062000086929190620002c8565b5060405162005fcf38038062005fcf8339818101604052810190620000ac919062000515565b6040518060400160405280601481526020017f42726f77736572204e616d6520536572766963650000000000000000000000008152506040518060400160405280600381526020017f4e4e530000000000000000000000000000000000000000000000000000000000815250816000908051906020019062000130929190620002c8565b50806001908051906020019062000149929190620002c8565b50505033600960006101000a81548173ffffffffffffffffffffffffffffffffffffffff021916908373ffffffffffffffffffffffffffffffffffffffff1602179055508060089080519060200190620001a5929190620002c8565b50620001f26040518060400160405280601881526020017f2573206e616d652073657276696365206465706c6f796564000000000000000081525082620001f960201b62001b0b1760201c565b5062000663565b6200029b828260405160240162000212929190620005c3565b6040516020818303038152906040527f4b5c4277000000000000000000000000000000000000000000000000000000007bffffffffffffffffffffffffffffffffffffffffffffffffffffffff19166020820180517bffffffffffffffffffffffffffffffffffffffffffffffffffffffff83818316178352505050506200029f60201b60201c565b5050565b60008151905060006a636f6e736f6c652e6c6f679050602083016000808483855afa5050505050565b828054620002d6906200062d565b90600052602060002090601f016020900481019282620002fa576000855562000346565b82601f106200031557805160ff191683800117855562000346565b8280016001018555821562000346579182015b828111156200034557825182559160200191906001019062000328565b5b50905062000355919062000359565b5090565b5b80821115620003745760008160009055506001016200035a565b5090565b6000604051905090565b600080fd5b600080fd5b600080fd5b600080fd5b6000601f19601f8301169050919050565b7f4e487b7100000000000000000000000000000000000000000000000000000000600052604160045260246000fd5b620003e18262000396565b810181811067ffffffffffffffff82111715620004035762000402620003a7565b5b80604052505050565b60006200041862000378565b9050620004268282620003d6565b919050565b600067ffffffffffffffff821115620004495762000448620003a7565b5b620004548262000396565b9050602081019050919050565b60005b838110156200048157808201518184015260208101905062000464565b8381111562000491576000848401525b50505050565b6000620004ae620004a8846200042b565b6200040c565b905082815260208101848484011115620004cd57620004cc62000391565b5b620004da84828562000461565b509392505050565b600082601f830112620004fa57620004f96200038c565b5b81516200050c84826020860162000497565b91505092915050565b6000602082840312156200052e576200052d62000382565b5b600082015167ffffffffffffffff8111156200054f576200054e62000387565b5b6200055d84828501620004e2565b91505092915050565b600081519050919050565b600082825260208201905092915050565b60006200058f8262000566565b6200059b818562000571565b9350620005ad81856020860162000461565b620005b88162000396565b840191505092915050565b60006040820190508181036000830152620005df818562000582565b90508181036020830152620005f5818462000582565b90509392505050565b7f4e487b7100000000000000000000000000000000000000000000000000000000600052602260045260246000fd5b600060028204905060018216806200064657607f821691505b602082108114156200065d576200065c620005fe565b5b50919050565b6150f180620006736000396000f3fe60806040526004361061019c5760003560e01c806370a08231116100ec578063b88d4fde1161008a578063e985e9c511610064578063e985e9c514610624578063f2c298be14610661578063fb825e5f1461067d578063fe2c6198146106a85761019c565b8063b88d4fde14610581578063bf40fac1146105aa578063c87b56dd146105e75761019c565b806395d89b41116100c657806395d89b41146104b35780639791c097146104de578063a22cb4651461051b578063b71081ac146105445761019c565b806370a08231146104205780638da5cb5b1461045d5780638f32d59b146104885761019c565b806326449235116101595780633e0a0099116101335780633e0a00991461035457806342842e0e1461037d5780634622ab03146103a65780636352211e146103e35761019c565b806326449235146102d55780632d551432146103125780633ccfd60b1461033d5761019c565b806301ffc9a7146101a157806306fdde03146101de578063081812fc14610209578063095ea7b31461024657806311dd88451461026f57806323b872dd146102ac575b600080fd5b3480156101ad57600080fd5b506101c860048036038101906101c39190613495565b6106e5565b6040516101d591906134dd565b60405180910390f35b3480156101ea57600080fd5b506101f36107c7565b6040516102009190613591565b60405180910390f35b34801561021557600080fd5b50610230600480360381019061022b91906135e9565b610859565b60405161023d9190613657565b60405180910390f35b34801561025257600080fd5b5061026d6004803603810190610268919061369e565b6108de565b005b34801561027b57600080fd5b5061029660048036038101906102919190613743565b6109f6565b6040516102a391906137a9565b60405180910390f35b3480156102b857600080fd5b506102d360048036038101906102ce91906137c4565b610a21565b005b3480156102e157600080fd5b506102fc60048036038101906102f79190613947565b610a81565b6040516103099190613657565b60405180910390f35b34801561031e57600080fd5b50610327610aca565b6040516103349190613591565b60405180910390f35b34801561034957600080fd5b50610352610b58565b005b34801561036057600080fd5b5061037b60048036038101906103769190613743565b610c1e565b005b34801561038957600080fd5b506103a4600480360381019061039f91906137c4565b610d21565b005b3480156103b257600080fd5b506103cd60048036038101906103c891906135e9565b610d41565b6040516103da9190613591565b60405180910390f35b3480156103ef57600080fd5b5061040a600480360381019061040591906135e9565b610de1565b6040516104179190613657565b60405180910390f35b34801561042c57600080fd5b5061044760048036038101906104429190613990565b610e93565b60405161045491906139cc565b60405180910390f35b34801561046957600080fd5b50610472610f4b565b60405161047f9190613a08565b60405180910390f35b34801561049457600080fd5b5061049d610f71565b6040516104aa91906134dd565b60405180910390f35b3480156104bf57600080fd5b506104c8610fc9565b6040516104d59190613591565b60405180910390f35b3480156104ea57600080fd5b5061050560048036038101906105009190613743565b61105b565b60405161051291906134dd565b60405180910390f35b34801561052757600080fd5b50610542600480360381019061053d9190613a4f565b61110f565b005b34801561055057600080fd5b5061056b60048036038101906105669190613947565b611125565b60405161057891906137a9565b60405180910390f35b34801561058d57600080fd5b506105a860048036038101906105a39190613b30565b611153565b005b3480156105b657600080fd5b506105d160048036038101906105cc9190613743565b6111b5565b6040516105de9190613657565b60405180910390f35b3480156105f357600080fd5b5061060e600480360381019061060991906135e9565b611200565b60405161061b9190613591565b60405180910390f35b34801561063057600080fd5b5061064b60048036038101906106469190613bb3565b611352565b60405161065891906134dd565b60405180910390f35b61067b60048036038101906106769190613743565b6113e6565b005b34801561068957600080fd5b50610692611887565b60405161069f9190613cff565b60405180910390f35b3480156106b457600080fd5b506106cf60048036038101906106ca9190613743565b611a65565b6040516106dc91906139cc565b60405180910390f35b60007f80ac58cd000000000000000000000000000000000000000000000000000000007bffffffffffffffffffffffffffffffffffffffffffffffffffffffff1916827bffffffffffffffffffffffffffffffffffffffffffffffffffffffff191614806107b057507f5b5e139f000000000000000000000000000000000000000000000000000000007bffffffffffffffffffffffffffffffffffffffffffffffffffffffff1916827bffffffffffffffffffffffffffffffffffffffffffffffffffffffff1916145b806107c057506107bf82611ba7565b5b9050919050565b6060600080546107d690613d50565b80601f016020809104026020016040519081016040528092919081815260200182805461080290613d50565b801561084f5780601f106108245761010080835404028352916020019161084f565b820191906000526020600020905b81548152906001019060200180831161083257829003601f168201915b5050505050905090565b600061086482611c11565b6108a3576040517f08c379a000000000000000000000000000000000000000000000000000000000815260040161089a90613df4565b60405180910390fd5b6004600083815260200190815260200160002060009054906101000a900473ffffffffffffffffffffffffffffffffffffffff169050919050565b60006108e982610de1565b90508073ffffffffffffffffffffffffffffffffffffffff168373ffffffffffffffffffffffffffffffffffffffff16141561095a576040517f08c379a000000000000000000000000000000000000000000000000000000000815260040161095190613e86565b60405180910390fd5b8073ffffffffffffffffffffffffffffffffffffffff16610979611c7d565b73ffffffffffffffffffffffffffffffffffffffff1614806109a857506109a7816109a2611c7d565b611352565b5b6109e7576040517f08c379a00000000000000000000000000000000000000000000000000000000081526004016109de90613f18565b60405180910390fd5b6109f18383611c85565b505050565b6000600d8383604051610a0a929190613f68565b908152602001604051809103902054905092915050565b610a32610a2c611c7d565b82611d3e565b610a71576040517f08c379a0000000000000000000000000000000000000000000000000000000008152600401610a6890613ff3565b60405180910390fd5b610a7c838383611e1c565b505050565b600c818051602081018201805184825260208301602085012081835280955050505050506000915054906101000a900473ffffffffffffffffffffffffffffffffffffffff1681565b60088054610ad790613d50565b80601f0160208091040260200160405190810160405280929190818152602001828054610b0390613d50565b8015610b505780601f10610b2557610100808354040283529160200191610b50565b820191906000526020600020905b815481529060010190602001808311610b3357829003601f168201915b505050505081565b610b60610f71565b610b6957600080fd5b600047905060003373ffffffffffffffffffffffffffffffffffffffff1682604051610b9490614044565b60006040518083038185875af1925050503d8060008114610bd1576040519150601f19603f3d011682016040523d82523d6000602084013e610bd6565b606091505b5050905080610c1a576040517f08c379a0000000000000000000000000000000000000000000000000000000008152600401610c11906140a5565b60405180910390fd5b5050565b600c8282604051610c30929190613f68565b908152602001604051809103902060009054906101000a900473ffffffffffffffffffffffffffffffffffffffff1673ffffffffffffffffffffffffffffffffffffffff163373ffffffffffffffffffffffffffffffffffffffff1614610cc3576040517f82b4290000000000000000000000000000000000000000000000000000000000815260040160405180910390fd5b6000610ccf6007612083565b604051602001610cdf91906140e6565b60405160208183030381529060405290508080519060200120600d8484604051610d0a929190613f68565b908152602001604051809103902081905550505050565b610d3c83838360405180602001604052806000815250611153565b505050565b600e6020528060005260406000206000915090508054610d6090613d50565b80601f0160208091040260200160405190810160405280929190818152602001828054610d8c90613d50565b8015610dd95780601f10610dae57610100808354040283529160200191610dd9565b820191906000526020600020905b815481529060010190602001808311610dbc57829003601f168201915b505050505081565b6000806002600084815260200190815260200160002060009054906101000a900473ffffffffffffffffffffffffffffffffffffffff169050600073ffffffffffffffffffffffffffffffffffffffff168173ffffffffffffffffffffffffffffffffffffffff161415610e8a576040517f08c379a0000000000000000000000000000000000000000000000000000000008152600401610e8190614173565b60405180910390fd5b80915050919050565b60008073ffffffffffffffffffffffffffffffffffffffff168273ffffffffffffffffffffffffffffffffffffffff161415610f04576040517f08c379a0000000000000000000000000000000000000000000000000000000008152600401610efb90614205565b60405180910390fd5b600360008373ffffffffffffffffffffffffffffffffffffffff1673ffffffffffffffffffffffffffffffffffffffff168152602001908152602001600020549050919050565b600960009054906101000a900473ffffffffffffffffffffffffffffffffffffffff1681565b6000600960009054906101000a900473ffffffffffffffffffffffffffffffffffffffff1673ffffffffffffffffffffffffffffffffffffffff163373ffffffffffffffffffffffffffffffffffffffff1614905090565b606060018054610fd890613d50565b80601f016020809104026020016040519081016040528092919081815260200182805461100490613d50565b80156110515780601f1061102657610100808354040283529160200191611051565b820191906000526020600020905b81548152906001019060200180831161103457829003601f168201915b5050505050905090565b600060036110ac84848080601f016020809104026020016040519081016040528093929190818152602001838380828437600081840152601f19601f82011690508083019250505050505050612091565b101580156111075750600a61110484848080601f016020809104026020016040519081016040528093929190818152602001838380828437600081840152601f19601f82011690508083019250505050505050612091565b11155b905092915050565b61112161111a611c7d565b8383612246565b5050565b600d818051602081018201805184825260208301602085012081835280955050505050506000915090505481565b61116461115e611c7d565b83611d3e565b6111a3576040517f08c379a000000000000000000000000000000000000000000000000000000000815260040161119a90613ff3565b60405180910390fd5b6111af848484846123b3565b50505050565b6000600c83836040516111c9929190613f68565b908152602001604051809103902060009054906101000a900473ffffffffffffffffffffffffffffffffffffffff16905092915050565b606061120b82611c11565b61124a576040517f08c379a000000000000000000000000000000000000000000000000000000000815260040161124190614297565b60405180910390fd5b600060066000848152602001908152602001600020805461126a90613d50565b80601f016020809104026020016040519081016040528092919081815260200182805461129690613d50565b80156112e35780601f106112b8576101008083540402835291602001916112e3565b820191906000526020600020905b8154815290600101906020018083116112c657829003601f168201915b5050505050905060006112f461240f565b905060008151141561130a57819250505061134d565b60008251111561133f5780826040516020016113279291906142e8565b6040516020818303038152906040529250505061134d565b61134884612426565b925050505b919050565b6000600560008473ffffffffffffffffffffffffffffffffffffffff1673ffffffffffffffffffffffffffffffffffffffff16815260200190815260200160002060008373ffffffffffffffffffffffffffffffffffffffff1673ffffffffffffffffffffffffffffffffffffffff16815260200190815260200160002060009054906101000a900460ff16905092915050565b600073ffffffffffffffffffffffffffffffffffffffff16600c8383604051611410929190613f68565b908152602001604051809103902060009054906101000a900473ffffffffffffffffffffffffffffffffffffffff1673ffffffffffffffffffffffffffffffffffffffff161461148c576040517f3a81d6fc00000000000000000000000000000000000000000000000000000000815260040160405180910390fd5b611496828261105b565b6114d95781816040517f7f19f48d0000000000000000000000000000000000000000000000000000000081526004016114d0929190614339565b60405180910390fd5b60006114e58383611a65565b90508034101561152a576040517f08c379a0000000000000000000000000000000000000000000000000000000008152600401611521906143a9565b60405180910390fd5b600083836008604051602001611542939291906144a9565b60405160208183030381529060405290506000600a82600b60405160200161156c939291906144da565b604051602081830303815290604052905060006115896007612083565b90508585600e600084815260200190815260200160002091906115ad929190613300565b5060006115fd87878080601f016020809104026020016040519081016040528093929190818152602001838380828437600081840152601f19601f82011690508083019250505050505050612091565b9050600061160a826124cd565b90506116fe6040518060600160405280603181526020016150526031913989898080601f016020809104026020016040519081016040528093929190818152602001838380828437600081840152601f19601f820116905080830192505050505050506008805461167a90613d50565b80601f01602080910402602001604051908101604052809291908181526020018280546116a690613d50565b80156116f35780601f106116c8576101008083540402835291602001916116f3565b820191906000526020600020905b8154815290600101906020018083116116d657829003601f168201915b50505050508661262e565b60006117348661170d876126d0565b8460405160200161172093929190614687565b6040516020818303038152906040526126d0565b90506000816040516020016117499190614730565b604051602081830303815290604052905061177b60405180606001604052806039815260200161501960399139612d0d565b6117ba6040518060400160405280600e81526020017f46696e616c20746f6b656e55524900000000000000000000000000000000000081525082611b0b565b6117db60405180606001604052806039815260200161508360399139612d0d565b6117e53386612da6565b6117ef8582612dc4565b33600c8b8b604051611802929190613f68565b908152602001604051809103902060006101000a81548173ffffffffffffffffffffffffffffffffffffffff021916908373ffffffffffffffffffffffffffffffffffffffff1602179055508989600e60008881526020019081526020016000209190611870929190613300565b5061187b6007612e38565b50505050505050505050565b60606118c76040518060400160405280601f81526020017f47657474696e6720616c6c206e616d65732066726f6d20636f6e747261637400815250612d0d565b60006118d36007612083565b67ffffffffffffffff8111156118ec576118eb61381c565b5b60405190808252806020026020018201604052801561191f57816020015b606081526020019060019003908161190a5790505b50905060005b61192f6007612083565b811015611a5d57600e6000828152602001908152602001600020805461195490613d50565b80601f016020809104026020016040519081016040528092919081815260200182805461198090613d50565b80156119cd5780601f106119a2576101008083540402835291602001916119cd565b820191906000526020600020905b8154815290600101906020018083116119b057829003601f168201915b50505050508282815181106119e5576119e4614752565b5b6020026020010181905250611a4a6040518060400160405280601781526020017f4e616d6520666f7220746f6b656e20256420697320257300000000000000000081525082848481518110611a3d57611a3c614752565b5b6020026020010151612e4e565b8080611a55906147b0565b915050611925565b508091505090565b600080611ab584848080601f016020809104026020016040519081016040528093929190818152602001838380828437600081840152601f19601f82011690508083019250505050505050612091565b905060008111611ac457600080fd5b6003811415611ade576706f05b59d3b20000915050611b05565b6004811415611af857670429d069189e0000915050611b05565b67016345785d8a00009150505b92915050565b611ba38282604051602401611b219291906147f9565b6040516020818303038152906040527f4b5c4277000000000000000000000000000000000000000000000000000000007bffffffffffffffffffffffffffffffffffffffffffffffffffffffff19166020820180517bffffffffffffffffffffffffffffffffffffffffffffffffffffffff8381831617835250505050612eed565b5050565b60007f01ffc9a7000000000000000000000000000000000000000000000000000000007bffffffffffffffffffffffffffffffffffffffffffffffffffffffff1916827bffffffffffffffffffffffffffffffffffffffffffffffffffffffff1916149050919050565b60008073ffffffffffffffffffffffffffffffffffffffff166002600084815260200190815260200160002060009054906101000a900473ffffffffffffffffffffffffffffffffffffffff1673ffffffffffffffffffffffffffffffffffffffff1614159050919050565b600033905090565b816004600083815260200190815260200160002060006101000a81548173ffffffffffffffffffffffffffffffffffffffff021916908373ffffffffffffffffffffffffffffffffffffffff160217905550808273ffffffffffffffffffffffffffffffffffffffff16611cf883610de1565b73ffffffffffffffffffffffffffffffffffffffff167f8c5be1e5ebec7d5bd14f71427d1e84f3dd0314c0f7b2291e5b200ac8c7c3b92560405160405180910390a45050565b6000611d4982611c11565b611d88576040517f08c379a0000000000000000000000000000000000000000000000000000000008152600401611d7f906148a2565b60405180910390fd5b6000611d9383610de1565b90508073ffffffffffffffffffffffffffffffffffffffff168473ffffffffffffffffffffffffffffffffffffffff161480611dd55750611dd48185611352565b5b80611e1357508373ffffffffffffffffffffffffffffffffffffffff16611dfb84610859565b73ffffffffffffffffffffffffffffffffffffffff16145b91505092915050565b8273ffffffffffffffffffffffffffffffffffffffff16611e3c82610de1565b73ffffffffffffffffffffffffffffffffffffffff1614611e92576040517f08c379a0000000000000000000000000000000000000000000000000000000008152600401611e8990614934565b60405180910390fd5b600073ffffffffffffffffffffffffffffffffffffffff168273ffffffffffffffffffffffffffffffffffffffff161415611f02576040517f08c379a0000000000000000000000000000000000000000000000000000000008152600401611ef9906149c6565b60405180910390fd5b611f0d838383612f16565b611f18600082611c85565b6001600360008573ffffffffffffffffffffffffffffffffffffffff1673ffffffffffffffffffffffffffffffffffffffff1681526020019081526020016000206000828254611f6891906149e6565b925050819055506001600360008473ffffffffffffffffffffffffffffffffffffffff1673ffffffffffffffffffffffffffffffffffffffff1681526020019081526020016000206000828254611fbf9190614a1a565b92505081905550816002600083815260200190815260200160002060006101000a81548173ffffffffffffffffffffffffffffffffffffffff021916908373ffffffffffffffffffffffffffffffffffffffff160217905550808273ffffffffffffffffffffffffffffffffffffffff168473ffffffffffffffffffffffffffffffffffffffff167fddf252ad1be2c89b69c2b068fc378daa952ba7f163c4a11628f55a4df523b3ef60405160405180910390a461207e838383612f1b565b505050565b600081600001549050919050565b60008060008084519050600092505b8082101561223b5760008583815181106120bd576120bc614752565b5b602001015160f81c60f81b9050608060f81b817effffffffffffffffffffffffffffffffffffffffffffffffffffffffffffff1916101561210c576001836121059190614a1a565b9250612227565b60e060f81b817effffffffffffffffffffffffffffffffffffffffffffffffffffffffffffff1916101561214e576002836121479190614a1a565b9250612226565b60f060f81b817effffffffffffffffffffffffffffffffffffffffffffffffffffffffffffff19161015612190576003836121899190614a1a565b9250612225565b60f8801b817effffffffffffffffffffffffffffffffffffffffffffffffffffffffffffff191610156121d1576004836121ca9190614a1a565b9250612224565b60fc60f81b817effffffffffffffffffffffffffffffffffffffffffffffffffffffffffffff191610156122135760058361220c9190614a1a565b9250612223565b6006836122209190614a1a565b92505b5b5b5b5b508280612233906147b0565b9350506120a0565b829350505050919050565b8173ffffffffffffffffffffffffffffffffffffffff168373ffffffffffffffffffffffffffffffffffffffff1614156122b5576040517f08c379a00000000000000000000000000000000000000000000000000000000081526004016122ac90614abc565b60405180910390fd5b80600560008573ffffffffffffffffffffffffffffffffffffffff1673ffffffffffffffffffffffffffffffffffffffff16815260200190815260200160002060008473ffffffffffffffffffffffffffffffffffffffff1673ffffffffffffffffffffffffffffffffffffffff16815260200190815260200160002060006101000a81548160ff0219169083151502179055508173ffffffffffffffffffffffffffffffffffffffff168373ffffffffffffffffffffffffffffffffffffffff167f17307eab39ab6107e8899845ad3d59bd9653f200f220920489ca2b5937696c31836040516123a691906134dd565b60405180910390a3505050565b6123be848484611e1c565b6123ca84848484612f20565b612409576040517f08c379a000000000000000000000000000000000000000000000000000000000815260040161240090614b4e565b60405180910390fd5b50505050565b606060405180602001604052806000815250905090565b606061243182611c11565b612470576040517f08c379a000000000000000000000000000000000000000000000000000000000815260040161246790614be0565b60405180910390fd5b600061247a61240f565b9050600081511161249a57604051806020016040528060008152506124c5565b806124a4846124cd565b6040516020016124b59291906142e8565b6040516020818303038152906040525b915050919050565b60606000821415612515576040518060400160405280600181526020017f30000000000000000000000000000000000000000000000000000000000000008152509050612629565b600082905060005b60008214612547578080612530906147b0565b915050600a826125409190614c2f565b915061251d565b60008167ffffffffffffffff8111156125635761256261381c565b5b6040519080825280601f01601f1916602001820160405280156125955781602001600182028036833780820191505090505b5090505b60008514612622576001826125ae91906149e6565b9150600a856125bd9190614c60565b60306125c99190614a1a565b60f81b8183815181106125df576125de614752565b5b60200101907effffffffffffffffffffffffffffffffffffffffffffffffffffffffffffff1916908160001a905350600a8561261b9190614c2f565b9450612599565b8093505050505b919050565b6126ca848484846040516024016126489493929190614c91565b6040516020818303038152906040527f9fd009f5000000000000000000000000000000000000000000000000000000007bffffffffffffffffffffffffffffffffffffffffffffffffffffffff19166020820180517bffffffffffffffffffffffffffffffffffffffffffffffffffffffff8381831617835250505050612eed565b50505050565b606060008060008451905060006003826126ea9190614c60565b14612716576003816126fc9190614c60565b600361270891906149e6565b816127139190614a1a565b90505b600085905060008267ffffffffffffffff8111156127375761273661381c565b5b6040519080825280601f01601f1916602001820160405280156127695781602001600182028036833780820191505090505b509050600094505b81518510156127ed5781858151811061278d5761278c614752565b5b602001015160f81c60f81b8186815181106127ab576127aa614752565b5b60200101907effffffffffffffffffffffffffffffffffffffffffffffffffffffffffffff1916908160001a90535084806127e5906147b0565b955050612771565b600060046003856127fe9190614c2f565b6128089190614ceb565b905060008167ffffffffffffffff8111156128265761282561381c565b5b6040519080825280601f01601f1916602001820160405280156128585781602001600182028036833780820191505090505b509050600096505b84871015612bca576000600284898151811061287f5761287e614752565b5b602001015160f81c60f81b60f81c60ff16901c9050600060048560018b6128a69190614a1a565b815181106128b7576128b6614752565b5b602001015160f81c60f81b60f81c60ff16901c60046003878c815181106128e1576128e0614752565b5b602001015160f81c60f81b60f81c60ff1616901b179050600060068660028c61290a9190614a1a565b8151811061291b5761291a614752565b5b602001015160f81c60f81b60f81c60ff16901c6002600f8860018e6129409190614a1a565b8151811061295157612950614752565b5b602001015160f81c60f81b60f81c60ff1616901b1790506000603f8760028d61297a9190614a1a565b8151811061298b5761298a614752565b5b602001015160f81c60f81b60f81c60ff16169050604051806080016040528060418152602001614fd86041913984815181106129ca576129c9614752565b5b602001015160f81c60f81b858b815181106129e8576129e7614752565b5b60200101907effffffffffffffffffffffffffffffffffffffffffffffffffffffffffffff1916908160001a905350604051806080016040528060418152602001614fd8604191398381518110612a4257612a41614752565b5b602001015160f81c60f81b8560018c612a5b9190614a1a565b81518110612a6c57612a6b614752565b5b60200101907effffffffffffffffffffffffffffffffffffffffffffffffffffffffffffff1916908160001a905350604051806080016040528060418152602001614fd8604191398281518110612ac657612ac5614752565b5b602001015160f81c60f81b8560028c612adf9190614a1a565b81518110612af057612aef614752565b5b60200101907effffffffffffffffffffffffffffffffffffffffffffffffffffffffffffff1916908160001a905350604051806080016040528060418152602001614fd8604191398181518110612b4a57612b49614752565b5b602001015160f81c60f81b8560038c612b639190614a1a565b81518110612b7457612b73614752565b5b60200101907effffffffffffffffffffffffffffffffffffffffffffffffffffffffffffff1916908160001a90535060048a612bb09190614a1a565b995050505050600387612bc39190614a1a565b9650612860565b6001895186612bd991906149e6565b10612c6457604051806080016040528060418152602001614fd860419139604081518110612c0a57612c09614752565b5b602001015160f81c60f81b81600188612c2391906149e6565b81518110612c3457612c33614752565b5b60200101907effffffffffffffffffffffffffffffffffffffffffffffffffffffffffffff1916908160001a9053505b6002895186612c7391906149e6565b10612cfe57604051806080016040528060418152602001614fd860419139604081518110612ca457612ca3614752565b5b602001015160f81c60f81b81600288612cbd91906149e6565b81518110612cce57612ccd614752565b5b60200101907effffffffffffffffffffffffffffffffffffffffffffffffffffffffffffff1916908160001a9053505b80975050505050505050919050565b612da381604051602401612d219190613591565b6040516020818303038152906040527f41304fac000000000000000000000000000000000000000000000000000000007bffffffffffffffffffffffffffffffffffffffffffffffffffffffff19166020820180517bffffffffffffffffffffffffffffffffffffffffffffffffffffffff8381831617835250505050612eed565b50565b612dc08282604051806020016040528060008152506130a8565b5050565b612dcd82611c11565b612e0c576040517f08c379a0000000000000000000000000000000000000000000000000000000008152600401612e0390614db7565b60405180910390fd5b80600660008481526020019081526020016000209080519060200190612e33929190613386565b505050565b6001816000016000828254019250508190555050565b612ee8838383604051602401612e6693929190614dd7565b6040516020818303038152906040527fa3f5c739000000000000000000000000000000000000000000000000000000007bffffffffffffffffffffffffffffffffffffffffffffffffffffffff19166020820180517bffffffffffffffffffffffffffffffffffffffffffffffffffffffff8381831617835250505050612eed565b505050565b60008151905060006a636f6e736f6c652e6c6f679050602083016000808483855afa5050505050565b505050565b505050565b6000612f418473ffffffffffffffffffffffffffffffffffffffff16613103565b1561309b578373ffffffffffffffffffffffffffffffffffffffff1663150b7a02612f6a611c7d565b8786866040518563ffffffff1660e01b8152600401612f8c9493929190614e71565b6020604051808303816000875af1925050508015612fc857506040513d601f19601f82011682018060405250810190612fc59190614ed2565b60015b61304b573d8060008114612ff8576040519150601f19603f3d011682016040523d82523d6000602084013e612ffd565b606091505b50600081511415613043576040517f08c379a000000000000000000000000000000000000000000000000000000000815260040161303a90614b4e565b60405180910390fd5b805181602001fd5b63150b7a0260e01b7bffffffffffffffffffffffffffffffffffffffffffffffffffffffff1916817bffffffffffffffffffffffffffffffffffffffffffffffffffffffff1916149150506130a0565b600190505b949350505050565b6130b28383613126565b6130bf6000848484612f20565b6130fe576040517f08c379a00000000000000000000000000000000000000000000000000000000081526004016130f590614b4e565b60405180910390fd5b505050565b6000808273ffffffffffffffffffffffffffffffffffffffff163b119050919050565b600073ffffffffffffffffffffffffffffffffffffffff168273ffffffffffffffffffffffffffffffffffffffff161415613196576040517f08c379a000000000000000000000000000000000000000000000000000000000815260040161318d90614f4b565b60405180910390fd5b61319f81611c11565b156131df576040517f08c379a00000000000000000000000000000000000000000000000000000000081526004016131d690614fb7565b60405180910390fd5b6131eb60008383612f16565b6001600360008473ffffffffffffffffffffffffffffffffffffffff1673ffffffffffffffffffffffffffffffffffffffff168152602001908152602001600020600082825461323b9190614a1a565b92505081905550816002600083815260200190815260200160002060006101000a81548173ffffffffffffffffffffffffffffffffffffffff021916908373ffffffffffffffffffffffffffffffffffffffff160217905550808273ffffffffffffffffffffffffffffffffffffffff16600073ffffffffffffffffffffffffffffffffffffffff167fddf252ad1be2c89b69c2b068fc378daa952ba7f163c4a11628f55a4df523b3ef60405160405180910390a46132fc60008383612f1b565b5050565b82805461330c90613d50565b90600052602060002090601f01602090048101928261332e5760008555613375565b82601f1061334757803560ff1916838001178555613375565b82800160010185558215613375579182015b82811115613374578235825591602001919060010190613359565b5b509050613382919061340c565b5090565b82805461339290613d50565b90600052602060002090601f0160209004810192826133b457600085556133fb565b82601f106133cd57805160ff19168380011785556133fb565b828001600101855582156133fb579182015b828111156133fa5782518255916020019190600101906133df565b5b509050613408919061340c565b5090565b5b8082111561342557600081600090555060010161340d565b5090565b6000604051905090565b600080fd5b600080fd5b60007fffffffff0000000000000000000000000000000000000000000000000000000082169050919050565b6134728161343d565b811461347d57600080fd5b50565b60008135905061348f81613469565b92915050565b6000602082840312156134ab576134aa613433565b5b60006134b984828501613480565b91505092915050565b60008115159050919050565b6134d7816134c2565b82525050565b60006020820190506134f260008301846134ce565b92915050565b600081519050919050565b600082825260208201905092915050565b60005b83811015613532578082015181840152602081019050613517565b83811115613541576000848401525b50505050565b6000601f19601f8301169050919050565b6000613563826134f8565b61356d8185613503565b935061357d818560208601613514565b61358681613547565b840191505092915050565b600060208201905081810360008301526135ab8184613558565b905092915050565b6000819050919050565b6135c6816135b3565b81146135d157600080fd5b50565b6000813590506135e3816135bd565b92915050565b6000602082840312156135ff576135fe613433565b5b600061360d848285016135d4565b91505092915050565b600073ffffffffffffffffffffffffffffffffffffffff82169050919050565b600061364182613616565b9050919050565b61365181613636565b82525050565b600060208201905061366c6000830184613648565b92915050565b61367b81613636565b811461368657600080fd5b50565b60008135905061369881613672565b92915050565b600080604083850312156136b5576136b4613433565b5b60006136c385828601613689565b92505060206136d4858286016135d4565b9150509250929050565b600080fd5b600080fd5b600080fd5b60008083601f840112613703576137026136de565b5b8235905067ffffffffffffffff8111156137205761371f6136e3565b5b60208301915083600182028301111561373c5761373b6136e8565b5b9250929050565b6000806020838503121561375a57613759613433565b5b600083013567ffffffffffffffff81111561377857613777613438565b5b613784858286016136ed565b92509250509250929050565b6000819050919050565b6137a381613790565b82525050565b60006020820190506137be600083018461379a565b92915050565b6000806000606084860312156137dd576137dc613433565b5b60006137eb86828701613689565b93505060206137fc86828701613689565b925050604061380d868287016135d4565b9150509250925092565b600080fd5b7f4e487b7100000000000000000000000000000000000000000000000000000000600052604160045260246000fd5b61385482613547565b810181811067ffffffffffffffff821117156138735761387261381c565b5b80604052505050565b6000613886613429565b9050613892828261384b565b919050565b600067ffffffffffffffff8211156138b2576138b161381c565b5b6138bb82613547565b9050602081019050919050565b82818337600083830152505050565b60006138ea6138e584613897565b61387c565b90508281526020810184848401111561390657613905613817565b5b6139118482856138c8565b509392505050565b600082601f83011261392e5761392d6136de565b5b813561393e8482602086016138d7565b91505092915050565b60006020828403121561395d5761395c613433565b5b600082013567ffffffffffffffff81111561397b5761397a613438565b5b61398784828501613919565b91505092915050565b6000602082840312156139a6576139a5613433565b5b60006139b484828501613689565b91505092915050565b6139c6816135b3565b82525050565b60006020820190506139e160008301846139bd565b92915050565b60006139f282613616565b9050919050565b613a02816139e7565b82525050565b6000602082019050613a1d60008301846139f9565b92915050565b613a2c816134c2565b8114613a3757600080fd5b50565b600081359050613a4981613a23565b92915050565b60008060408385031215613a6657613a65613433565b5b6000613a7485828601613689565b9250506020613a8585828601613a3a565b9150509250929050565b600067ffffffffffffffff821115613aaa57613aa961381c565b5b613ab382613547565b9050602081019050919050565b6000613ad3613ace84613a8f565b61387c565b905082815260208101848484011115613aef57613aee613817565b5b613afa8482856138c8565b509392505050565b600082601f830112613b1757613b166136de565b5b8135613b27848260208601613ac0565b91505092915050565b60008060008060808587031215613b4a57613b49613433565b5b6000613b5887828801613689565b9450506020613b6987828801613689565b9350506040613b7a878288016135d4565b925050606085013567ffffffffffffffff811115613b9b57613b9a613438565b5b613ba787828801613b02565b91505092959194509250565b60008060408385031215613bca57613bc9613433565b5b6000613bd885828601613689565b9250506020613be985828601613689565b9150509250929050565b600081519050919050565b600082825260208201905092915050565b6000819050602082019050919050565b600082825260208201905092915050565b6000613c3b826134f8565b613c458185613c1f565b9350613c55818560208601613514565b613c5e81613547565b840191505092915050565b6000613c758383613c30565b905092915050565b6000602082019050919050565b6000613c9582613bf3565b613c9f8185613bfe565b935083602082028501613cb185613c0f565b8060005b85811015613ced5784840389528151613cce8582613c69565b9450613cd983613c7d565b925060208a01995050600181019050613cb5565b50829750879550505050505092915050565b60006020820190508181036000830152613d198184613c8a565b905092915050565b7f4e487b7100000000000000000000000000000000000000000000000000000000600052602260045260246000fd5b60006002820490506001821680613d6857607f821691505b60208210811415613d7c57613d7b613d21565b5b50919050565b7f4552433732313a20617070726f76656420717565727920666f72206e6f6e657860008201527f697374656e7420746f6b656e0000000000000000000000000000000000000000602082015250565b6000613dde602c83613503565b9150613de982613d82565b604082019050919050565b60006020820190508181036000830152613e0d81613dd1565b9050919050565b7f4552433732313a20617070726f76616c20746f2063757272656e74206f776e6560008201527f7200000000000000000000000000000000000000000000000000000000000000602082015250565b6000613e70602183613503565b9150613e7b82613e14565b604082019050919050565b60006020820190508181036000830152613e9f81613e63565b9050919050565b7f4552433732313a20617070726f76652063616c6c6572206973206e6f74206f7760008201527f6e6572206e6f7220617070726f76656420666f7220616c6c0000000000000000602082015250565b6000613f02603883613503565b9150613f0d82613ea6565b604082019050919050565b60006020820190508181036000830152613f3181613ef5565b9050919050565b600081905092915050565b6000613f4f8385613f38565b9350613f5c8385846138c8565b82840190509392505050565b6000613f75828486613f43565b91508190509392505050565b7f4552433732313a207472616e736665722063616c6c6572206973206e6f74206f60008201527f776e6572206e6f7220617070726f766564000000000000000000000000000000602082015250565b6000613fdd603183613503565b9150613fe882613f81565b604082019050919050565b6000602082019050818103600083015261400c81613fd0565b9050919050565b600081905092915050565b50565b600061402e600083614013565b91506140398261401e565b600082019050919050565b600061404f82614021565b9150819050919050565b7f4661696c656420746f207769746864726177204d617469630000000000000000600082015250565b600061408f601883613503565b915061409a82614059565b602082019050919050565b600060208201905081810360008301526140be81614082565b9050919050565b6000819050919050565b6140e06140db826135b3565b6140c5565b82525050565b60006140f282846140cf565b60208201915081905092915050565b7f4552433732313a206f776e657220717565727920666f72206e6f6e657869737460008201527f656e7420746f6b656e0000000000000000000000000000000000000000000000602082015250565b600061415d602983613503565b915061416882614101565b604082019050919050565b6000602082019050818103600083015261418c81614150565b9050919050565b7f4552433732313a2062616c616e636520717565727920666f7220746865207a6560008201527f726f206164647265737300000000000000000000000000000000000000000000602082015250565b60006141ef602a83613503565b91506141fa82614193565b604082019050919050565b6000602082019050818103600083015261421e816141e2565b9050919050565b7f45524337323155524953746f726167653a2055524920717565727920666f722060008201527f6e6f6e6578697374656e7420746f6b656e000000000000000000000000000000602082015250565b6000614281603183613503565b915061428c82614225565b604082019050919050565b600060208201905081810360008301526142b081614274565b9050919050565b60006142c2826134f8565b6142cc8185613f38565b93506142dc818560208601613514565b80840191505092915050565b60006142f482856142b7565b915061430082846142b7565b91508190509392505050565b60006143188385613503565b93506143258385846138c8565b61432e83613547565b840190509392505050565b6000602082019050818103600083015261435481848661430c565b90509392505050565b7f4e6f7420656e6f756768204d6174696320706169640000000000000000000000600082015250565b6000614393601583613503565b915061439e8261435d565b602082019050919050565b600060208201905081810360008301526143c281614386565b9050919050565b7f2e00000000000000000000000000000000000000000000000000000000000000600082015250565b60006143ff600183613f38565b915061440a826143c9565b600182019050919050565b60008190508160005260206000209050919050565b6000815461443781613d50565b6144418186613f38565b9450600182166000811461445c576001811461446d576144a0565b60ff198316865281860193506144a0565b61447685614415565b60005b8381101561449857815481890152600182019150602081019050614479565b838801955050505b50505092915050565b60006144b6828587613f43565b91506144c1826143f2565b91506144cd828461442a565b9150819050949350505050565b60006144e6828661442a565b91506144f282856142b7565b91506144fe828461442a565b9150819050949350505050565b7f7b226e616d65223a202200000000000000000000000000000000000000000000600082015250565b6000614541600a83613f38565b915061454c8261450b565b600a82019050919050565b7f222c20226465736372697074696f6e223a20224120646f6d61696e206f6e207460008201527f68652042726f77736572206e616d652073657276696365222c2022696d61676560208201527f223a2022646174613a696d6167652f7376672b786d6c3b6261736536342c0000604082015250565b60006145d9605e83613f38565b91506145e482614557565b605e82019050919050565b7f222c226c656e677468223a220000000000000000000000000000000000000000600082015250565b6000614625600c83613f38565b9150614630826145ef565b600c82019050919050565b7f227d000000000000000000000000000000000000000000000000000000000000600082015250565b6000614671600283613f38565b915061467c8261463b565b600282019050919050565b600061469282614534565b915061469e82866142b7565b91506146a9826145cc565b91506146b582856142b7565b91506146c082614618565b91506146cc82846142b7565b91506146d782614664565b9150819050949350505050565b7f646174613a6170706c69636174696f6e2f6a736f6e3b6261736536342c000000600082015250565b600061471a601d83613f38565b9150614725826146e4565b601d82019050919050565b600061473b8261470d565b915061474782846142b7565b915081905092915050565b7f4e487b7100000000000000000000000000000000000000000000000000000000600052603260045260246000fd5b7f4e487b7100000000000000000000000000000000000000000000000000000000600052601160045260246000fd5b60006147bb826135b3565b91507fffffffffffffffffffffffffffffffffffffffffffffffffffffffffffffffff8214156147ee576147ed614781565b5b600182019050919050565b600060408201905081810360008301526148138185613558565b905081810360208301526148278184613558565b90509392505050565b7f4552433732313a206f70657261746f7220717565727920666f72206e6f6e657860008201527f697374656e7420746f6b656e0000000000000000000000000000000000000000602082015250565b600061488c602c83613503565b915061489782614830565b604082019050919050565b600060208201905081810360008301526148bb8161487f565b9050919050565b7f4552433732313a207472616e736665722066726f6d20696e636f72726563742060008201527f6f776e6572000000000000000000000000000000000000000000000000000000602082015250565b600061491e602583613503565b9150614929826148c2565b604082019050919050565b6000602082019050818103600083015261494d81614911565b9050919050565b7f4552433732313a207472616e7366657220746f20746865207a65726f2061646460008201527f7265737300000000000000000000000000000000000000000000000000000000602082015250565b60006149b0602483613503565b91506149bb82614954565b604082019050919050565b600060208201905081810360008301526149df816149a3565b9050919050565b60006149f1826135b3565b91506149fc836135b3565b925082821015614a0f57614a0e614781565b5b828203905092915050565b6000614a25826135b3565b9150614a30836135b3565b9250827fffffffffffffffffffffffffffffffffffffffffffffffffffffffffffffffff03821115614a6557614a64614781565b5b828201905092915050565b7f4552433732313a20617070726f766520746f2063616c6c657200000000000000600082015250565b6000614aa6601983613503565b9150614ab182614a70565b602082019050919050565b60006020820190508181036000830152614ad581614a99565b9050919050565b7f4552433732313a207472616e7366657220746f206e6f6e20455243373231526560008201527f63656976657220696d706c656d656e7465720000000000000000000000000000602082015250565b6000614b38603283613503565b9150614b4382614adc565b604082019050919050565b60006020820190508181036000830152614b6781614b2b565b9050919050565b7f4552433732314d657461646174613a2055524920717565727920666f72206e6f60008201527f6e6578697374656e7420746f6b656e0000000000000000000000000000000000602082015250565b6000614bca602f83613503565b9150614bd582614b6e565b604082019050919050565b60006020820190508181036000830152614bf981614bbd565b9050919050565b7f4e487b7100000000000000000000000000000000000000000000000000000000600052601260045260246000fd5b6000614c3a826135b3565b9150614c45836135b3565b925082614c5557614c54614c00565b5b828204905092915050565b6000614c6b826135b3565b9150614c76836135b3565b925082614c8657614c85614c00565b5b828206905092915050565b60006080820190508181036000830152614cab8187613558565b90508181036020830152614cbf8186613558565b90508181036040830152614cd38185613558565b9050614ce260608301846139bd565b95945050505050565b6000614cf6826135b3565b9150614d01836135b3565b9250817fffffffffffffffffffffffffffffffffffffffffffffffffffffffffffffffff0483118215151615614d3a57614d39614781565b5b828202905092915050565b7f45524337323155524953746f726167653a2055524920736574206f66206e6f6e60008201527f6578697374656e7420746f6b656e000000000000000000000000000000000000602082015250565b6000614da1602e83613503565b9150614dac82614d45565b604082019050919050565b60006020820190508181036000830152614dd081614d94565b9050919050565b60006060820190508181036000830152614df18186613558565b9050614e0060208301856139bd565b8181036040830152614e128184613558565b9050949350505050565b600081519050919050565b600082825260208201905092915050565b6000614e4382614e1c565b614e4d8185614e27565b9350614e5d818560208601613514565b614e6681613547565b840191505092915050565b6000608082019050614e866000830187613648565b614e936020830186613648565b614ea060408301856139bd565b8181036060830152614eb28184614e38565b905095945050505050565b600081519050614ecc81613469565b92915050565b600060208284031215614ee857614ee7613433565b5b6000614ef684828501614ebd565b91505092915050565b7f4552433732313a206d696e7420746f20746865207a65726f2061646472657373600082015250565b6000614f35602083613503565b9150614f4082614eff565b602082019050919050565b60006020820190508181036000830152614f6481614f28565b9050919050565b7f4552433732313a20746f6b656e20616c7265616479206d696e74656400000000600082015250565b6000614fa1601c83613503565b9150614fac82614f6b565b602082019050919050565b60006020820190508181036000830152614fd081614f94565b905091905056fe4142434445464748494a4b4c4d4e4f505152535455565758595a6162636465666768696a6b6c6d6e6f707172737475767778797a303132333435363738392d5f3d0a2d2d2d2d2d2d2d2d2d2d2d2d2d2d2d2d2d2d2d2d2d2d2d2d2d2d2d2d2d2d2d2d2d2d2d2d2d2d2d2d2d2d2d2d2d2d2d2d2d2d2d2d2d2d2d2d5265676973746572696e672025732e2573206f6e2074686520636f6e7472616374207769746820746f6b656e49442025642d2d2d2d2d2d2d2d2d2d2d2d2d2d2d2d2d2d2d2d2d2d2d2d2d2d2d2d2d2d2d2d2d2d2d2d2d2d2d2d2d2d2d2d2d2d2d2d2d2d2d2d2d2d2d2d0aa2646970667358221220cedacc61697bffc7092a6ab1e801d58c878aa4169d52e369c8b0a5ce6973c78464736f6c634300080a00333c73766720786d6c6e733d22687474703a2f2f7777772e77332e6f72672f323030302f737667222077696474683d2232373022206865696768743d22323730222066696c6c3d226e6f6e65223e3c706174682066696c6c3d2275726c282342292220643d224d302030683237307632373048307a222f3e3c646566733e3c66696c7465722069643d22412220636f6c6f722d696e746572706f6c6174696f6e2d66696c746572733d2273524742222066696c746572556e6974733d227573657253706163654f6e55736522206865696768743d22323730222077696474683d22323730223e3c666544726f70536861646f772064783d2230222064793d22312220737464446576696174696f6e3d22322220666c6f6f642d6f7061636974793d222e323235222077696474683d223230302522206865696768743d2232303025222f3e3c2f66696c7465723e3c2f646566733e3c7061746820643d224d37322e3836332034322e393439632d2e3636382d2e3338372d312e3432362d2e35392d322e3139372d2e3539732d312e3532392e3230342d322e3139372e35396c2d31302e30383120362e3033322d362e383520332e3933342d31302e30383120362e303332632d2e3636382e3338372d312e3432362e35392d322e3139372e3539732d312e3532392d2e3230342d322e3139372d2e35396c2d382e3031332d342e37323161342e353220342e35322030203020312d312e3538392d312e363136632d2e3338342d2e3636352d2e3539342d312e3431382d2e3630382d322e313837762d392e3331632d2e3031332d2e3737352e3138352d312e3533382e3537322d322e32303861342e323520342e323520302030203120312e3632352d312e3539356c372e3838342d342e3539632e3636382d2e33383720312e3432362d2e353920322e3139372d2e353973312e3532392e32303420322e3139372e35396c372e38383420342e353961342e353220342e353220302030203120312e35383920312e363136632e3338342e3636352e35393420312e3431382e36303820322e31383776362e3033326c362e38352d342e303635762d362e303332632e3031332d2e3737352d2e3138352d312e3533382d2e3537322d322e32303861342e323520342e32352030203020302d312e3632352d312e3539354c34312e3435362032342e3539632d2e3636382d2e3338372d312e3432362d2e35392d322e3139372d2e3539732d312e3532392e3230342d322e3139372e35396c2d31342e38363420382e36353561342e323520342e32352030203020302d312e36323520312e353935632d2e3338372e36372d2e35383520312e3433342d2e35373220322e3230387631372e343431632d2e3031332e3737352e31383520312e3533382e35373220322e32303861342e323520342e323520302030203020312e36323520312e3539356c31342e38363420382e363535632e3636382e33383720312e3432362e353920322e3139372e353973312e3532392d2e32303420322e3139372d2e35396c31302e3038312d352e39303120362e38352d342e3036352031302e3038312d352e393031632e3636382d2e33383720312e3432362d2e353920322e3139372d2e353973312e3532392e32303420322e3139372e35396c372e38383420342e353961342e353220342e353220302030203120312e35383920312e363136632e3338342e3636352e35393420312e3431382e36303820322e31383776392e333131632e3031332e3737352d2e31383520312e3533382d2e35373220322e32303861342e323520342e32352030203020312d312e36323520312e3539356c2d372e38383420342e373231632d2e3636382e3338372d312e3432362e35392d322e3139372e3539732d312e3532392d2e3230342d322e3139372d2e35396c2d372e3838342d342e353961342e353220342e35322030203020312d312e3538392d312e363136632d2e3338352d2e3636352d2e3539342d312e3431382d2e3630382d322e313837762d362e3033326c2d362e383520342e30363576362e303332632d2e3031332e3737352e31383520312e3533382e35373220322e32303861342e323520342e323520302030203020312e36323520312e3539356c31342e38363420382e363535632e3636382e33383720312e3432362e353920322e3139372e353973312e3532392d2e32303420322e3139372d2e35396c31342e3836342d382e363535632e3635372d2e33393420312e3230342d2e393520312e3538392d312e363136732e3539342d312e3431382e3630392d322e3138375635352e353338632e3031332d2e3737352d2e3138352d312e3533382d2e3537322d322e32303861342e323520342e32352030203020302d312e3632352d312e3539356c2d31342e3939332d382e3738367a222066696c6c3d2223666666222f3e3c646566733e3c6c696e6561724772616469656e742069643d2242222078313d2230222079313d2230222078323d22323730222079323d2232373022206772616469656e74556e6974733d227573657253706163654f6e557365223e3c73746f702073746f702d636f6c6f723d2223636235656565222f3e3c73746f70206f66667365743d2231222073746f702d636f6c6f723d2223306364376534222073746f702d6f7061636974793d222e3939222f3e3c2f6c696e6561724772616469656e743e3c2f646566733e3c7465787420783d2233322e352220793d223233312220666f6e742d73697a653d223237222066696c6c3d2223666666222066696c7465723d2275726c282341292220666f6e742d66616d696c793d22506c7573204a616b617274612053616e732c44656a6156752053616e732c4e6f746f20436f6c6f7220456d6f6a692c4170706c6520436f6c6f7220456d6f6a692c73616e732d73657269662220666f6e742d7765696768743d22626f6c64223e",
  "linkReferences": {},
  "deployedLinkReferences": {}
}